{"abi":[{"type":"constructor","inputs":[{"name":"_codec","type":"address","internalType":"address"},{"name":"_proofVerifier","type":"address","internalType":"address"},{"name":"_proposerChecker","type":"address","internalType":"address"},{"name":"_taikoToken","type":"address","internalType":"address"},{"name":"_checkpointStore","type":"address","internalType":"address"}],"stateMutability":"nonpayable"},{"type":"function","name":"acceptOwnership","inputs":[],"outputs":[],"stateMutability":"nonpayable"},{"type":"function","name":"activate","inputs":[{"name":"_genesisBlockHash","type":"bytes32","internalType":"bytes32"}],"outputs":[],"stateMutability":"nonpayable"},{"type":"function","name":"conflictingTransitionDetected","inputs":[],"outputs":[{"name":"","type":"bool","internalType":"bool"}],"stateMutability":"view"},{"type":"function","name":"getConfig","inputs":[],"outputs":[{"name":"config_","type":"tuple","internalType":"struct IInbox.Config","components":[{"name":"codec","type":"address","internalType":"address"},{"name":"bondToken","type":"address","internalType":"address"},{"name":"checkpointStore","type":"address","internalType":"address"},{"name":"proofVerifier","type":"address","internalType":"address"},{"name":"proposerChecker","type":"address","internalType":"address"},{"name":"provingWindow","type":"uint48","internalType":"uint48"},{"name":"extendedProvingWindow","type":"uint48","internalType":"uint48"},{"name":"maxFinalizationCount","type":"uint256","internalType":"uint256"},{"name":"finalizationGracePeriod","type":"uint48","internalType":"uint48"},{"name":"ringBufferSize","type":"uint256","internalType":"uint256"},{"name":"basefeeSharingPctg","type":"uint8","internalType":"uint8"},{"name":"minForcedInclusionCount","type":"uint256","internalType":"uint256"},{"name":"forcedInclusionDelay","type":"uint16","internalType":"uint16"},{"name":"forcedInclusionFeeInGwei","type":"uint64","internalType":"uint64"},{"name":"forcedInclusionFeeDoubleThreshold","type":"uint64","internalType":"uint64"},{"name":"minCheckpointDelay","type":"uint16","internalType":"uint16"},{"name":"permissionlessInclusionMultiplier","type":"uint8","internalType":"uint8"},{"name":"compositeKeyVersion","type":"uint16","internalType":"uint16"}]}],"stateMutability":"view"},{"type":"function","name":"getCurrentForcedInclusionFee","inputs":[],"outputs":[{"name":"feeInGwei_","type":"uint64","internalType":"uint64"}],"stateMutability":"view"},{"type":"function","name":"getForcedInclusionState","inputs":[],"outputs":[{"name":"head_","type":"uint48","internalType":"uint48"},{"name":"tail_","type":"uint48","internalType":"uint48"},{"name":"lastProcessedAt_","type":"uint48","internalType":"uint48"}],"stateMutability":"view"},{"type":"function","name":"getForcedInclusions","inputs":[{"name":"_start","type":"uint48","internalType":"uint48"},{"name":"_maxCount","type":"uint48","internalType":"uint48"}],"outputs":[{"name":"inclusions_","type":"tuple[]","internalType":"struct IForcedInclusionStore.ForcedInclusion[]","components":[{"name":"feeInGwei","type":"uint64","internalType":"uint64"},{"name":"blobSlice","type":"tuple","internalType":"struct LibBlobs.BlobSlice","components":[{"name":"blobHashes","type":"bytes32[]","internalType":"bytes32[]"},{"name":"offset","type":"uint24","internalType":"uint24"},{"name":"timestamp","type":"uint48","internalType":"uint48"}]}]}],"stateMutability":"view"},{"type":"function","name":"getProposalHash","inputs":[{"name":"_proposalId","type":"uint48","internalType":"uint48"}],"outputs":[{"name":"proposalHash_","type":"bytes32","internalType":"bytes32"}],"stateMutability":"view"},{"type":"function","name":"getTransitionRecordHash","inputs":[{"name":"_proposalId","type":"uint48","internalType":"uint48"},{"name":"_parentTransitionHash","type":"bytes32","internalType":"bytes32"}],"outputs":[{"name":"finalizationDeadline_","type":"uint48","internalType":"uint48"},{"name":"recordHash_","type":"bytes26","internalType":"bytes26"}],"stateMutability":"view"},{"type":"function","name":"impl","inputs":[],"outputs":[{"name":"","type":"address","internalType":"address"}],"stateMutability":"view"},{"type":"function","name":"inNonReentrant","inputs":[],"outputs":[{"name":"","type":"bool","internalType":"bool"}],"stateMutability":"view"},{"type":"function","name":"init","inputs":[{"name":"_owner","type":"address","internalType":"address"},{"name":"shastaInitializer","type":"address","internalType":"address"}],"outputs":[],"stateMutability":"nonpayable"},{"type":"function","name":"owner","inputs":[],"outputs":[{"name":"","type":"address","internalType":"address"}],"stateMutability":"view"},{"type":"function","name":"pause","inputs":[],"outputs":[],"stateMutability":"nonpayable"},{"type":"function","name":"paused","inputs":[],"outputs":[{"name":"","type":"bool","internalType":"bool"}],"stateMutability":"view"},{"type":"function","name":"pendingOwner","inputs":[],"outputs":[{"name":"","type":"address","internalType":"address"}],"stateMutability":"view"},{"type":"function","name":"propose","inputs":[{"name":"_lookahead","type":"bytes","internalType":"bytes"},{"name":"_data","type":"bytes","internalType":"bytes"}],"outputs":[],"stateMutability":"nonpayable"},{"type":"function","name":"prove","inputs":[{"name":"_data","type":"bytes","internalType":"bytes"},{"name":"_proof","type":"bytes","internalType":"bytes"}],"outputs":[],"stateMutability":"nonpayable"},{"type":"function","name":"proxiableUUID","inputs":[],"outputs":[{"name":"","type":"bytes32","internalType":"bytes32"}],"stateMutability":"view"},{"type":"function","name":"renounceOwnership","inputs":[],"outputs":[],"stateMutability":"nonpayable"},{"type":"function","name":"resolver","inputs":[],"outputs":[{"name":"","type":"address","internalType":"address"}],"stateMutability":"view"},{"type":"function","name":"saveForcedInclusion","inputs":[{"name":"_blobReference","type":"tuple","internalType":"struct LibBlobs.BlobReference","components":[{"name":"blobStartIndex","type":"uint16","internalType":"uint16"},{"name":"numBlobs","type":"uint16","internalType":"uint16"},{"name":"offset","type":"uint24","internalType":"uint24"}]}],"outputs":[],"stateMutability":"payable"},{"type":"function","name":"transferOwnership","inputs":[{"name":"newOwner","type":"address","internalType":"address"}],"outputs":[],"stateMutability":"nonpayable"},{"type":"function","name":"unpause","inputs":[],"outputs":[],"stateMutability":"nonpayable"},{"type":"function","name":"upgradeTo","inputs":[{"name":"newImplementation","type":"address","internalType":"address"}],"outputs":[],"stateMutability":"nonpayable"},{"type":"function","name":"upgradeToAndCall","inputs":[{"name":"newImplementation","type":"address","internalType":"address"},{"name":"data","type":"bytes","internalType":"bytes"}],"outputs":[],"stateMutability":"payable"},{"type":"event","name":"AdminChanged","inputs":[{"name":"previousAdmin","type":"address","indexed":false,"internalType":"address"},{"name":"newAdmin","type":"address","indexed":false,"internalType":"address"}],"anonymous":false},{"type":"event","name":"BeaconUpgraded","inputs":[{"name":"beacon","type":"address","indexed":true,"internalType":"address"}],"anonymous":false},{"type":"event","name":"ForcedInclusionSaved","inputs":[{"name":"forcedInclusion","type":"tuple","indexed":false,"internalType":"struct IForcedInclusionStore.ForcedInclusion","components":[{"name":"feeInGwei","type":"uint64","internalType":"uint64"},{"name":"blobSlice","type":"tuple","internalType":"struct LibBlobs.BlobSlice","components":[{"name":"blobHashes","type":"bytes32[]","internalType":"bytes32[]"},{"name":"offset","type":"uint24","internalType":"uint24"},{"name":"timestamp","type":"uint48","internalType":"uint48"}]}]}],"anonymous":false},{"type":"event","name":"Initialized","inputs":[{"name":"version","type":"uint8","indexed":false,"internalType":"uint8"}],"anonymous":false},{"type":"event","name":"OwnershipTransferStarted","inputs":[{"name":"previousOwner","type":"address","indexed":true,"internalType":"address"},{"name":"newOwner","type":"address","indexed":true,"internalType":"address"}],"anonymous":false},{"type":"event","name":"OwnershipTransferred","inputs":[{"name":"previousOwner","type":"address","indexed":true,"internalType":"address"},{"name":"newOwner","type":"address","indexed":true,"internalType":"address"}],"anonymous":false},{"type":"event","name":"Paused","inputs":[{"name":"account","type":"address","indexed":false,"internalType":"address"}],"anonymous":false},{"type":"event","name":"Proposed","inputs":[{"name":"data","type":"bytes","indexed":false,"internalType":"bytes"}],"anonymous":false},{"type":"event","name":"Proved","inputs":[{"name":"data","type":"bytes","indexed":false,"internalType":"bytes"}],"anonymous":false},{"type":"event","name":"TransitionConflictDetected","inputs":[],"anonymous":false},{"type":"event","name":"TransitionDuplicateDetected","inputs":[],"anonymous":false},{"type":"event","name":"Unpaused","inputs":[{"name":"account","type":"address","indexed":false,"internalType":"address"}],"anonymous":false},{"type":"event","name":"Upgraded","inputs":[{"name":"implementation","type":"address","indexed":true,"internalType":"address"}],"anonymous":false},{"type":"error","name":"ACCESS_DENIED","inputs":[]},{"type":"error","name":"BlobNotFound","inputs":[]},{"type":"error","name":"CannotProposeInCurrentBlock","inputs":[]},{"type":"error","name":"CheckpointMismatch","inputs":[]},{"type":"error","name":"CheckpointNotProvided","inputs":[]},{"type":"error","name":"DeadlineExceeded","inputs":[]},{"type":"error","name":"ETH_TRANSFER_FAILED","inputs":[]},{"type":"error","name":"EmptyProposals","inputs":[]},{"type":"error","name":"FUNC_NOT_IMPLEMENTED","inputs":[]},{"type":"error","name":"INVALID_PAUSE_STATUS","inputs":[]},{"type":"error","name":"InconsistentLengths","inputs":[]},{"type":"error","name":"InconsistentParams","inputs":[]},{"type":"error","name":"IncorrectProposalCount","inputs":[]},{"type":"error","name":"InvalidCoreState","inputs":[]},{"type":"error","name":"InvalidLastProposalProof","inputs":[]},{"type":"error","name":"InvalidSpan","inputs":[]},{"type":"error","name":"InvalidState","inputs":[]},{"type":"error","name":"LengthExceedsUint16","inputs":[]},{"type":"error","name":"NextProposalHashMismatch","inputs":[]},{"type":"error","name":"NoBlobs","inputs":[]},{"type":"error","name":"NoBondToWithdraw","inputs":[]},{"type":"error","name":"NotEnoughCapacity","inputs":[]},{"type":"error","name":"ProposalHashMismatch","inputs":[]},{"type":"error","name":"ProposalHashMismatchWithTransition","inputs":[]},{"type":"error","name":"ProposalTransitionLengthMismatch","inputs":[]},{"type":"error","name":"REENTRANT_CALL","inputs":[]},{"type":"error","name":"RingBufferSizeZero","inputs":[]},{"type":"error","name":"SpanOutOfBounds","inputs":[]},{"type":"error","name":"TransitionRecordHashMismatchWithStorage","inputs":[]},{"type":"error","name":"TransitionRecordNotProvided","inputs":[]},{"type":"error","name":"UnprocessedForcedInclusionIsDue","inputs":[]},{"type":"error","name":"ZERO_ADDRESS","inputs":[]},{"type":"error","name":"ZERO_VALUE","inputs":[]}],"bytecode":{"object":"0x61030060405230608052348015610014575f5ffd5b50604051616019380380616019833981016040819052610033916102fb565b60408051610240810182526001600160a01b03808816825284811660208301528381169282019290925285821660608201529084166080820152611c2060a082015261384060c0820152601060e08201526103006101008201526064610120820152604b610140820152600161016082018190525f61018080840191909152629896806101a084015260326101c08401526101e0830152600561020083015261022082015280806100e2610224565b60408101516001600160a01b031661010d5760405163538ba4f960e01b815260040160405180910390fd5b8061012001515f03610132576040516361395dfb60e01b815260040160405180910390fd5b80516001600160a01b0390811660c09081526020830151821660e0908152606084015183166101009081526080850151841661012090815260408601519094166102e05260a085015165ffffffffffff9081166101409081529386015181166101609081529286015161018090815291860151166101a0908152938501516101c09081529285015160ff9081166101e0908152928601516102009081529186015161ffff908116610220908152958701516001600160401b0390811661024052948701519094166102605291850151831661028052840151166102a052910151166102c0525061035c95505050505050565b5f54610100900460ff161561028f5760405162461bcd60e51b815260206004820152602760248201527f496e697469616c697a61626c653a20636f6e747261637420697320696e697469604482015266616c697a696e6760c81b606482015260840160405180910390fd5b5f5460ff908116146102de575f805460ff191660ff9081179091556040519081527f7f26b83ff96e1f2b6a682f133852f6798a09c465da95921460cefb38474024989060200160405180910390a15b565b80516001600160a01b03811681146102f6575f5ffd5b919050565b5f5f5f5f5f60a0868803121561030f575f5ffd5b610318866102e0565b9450610326602087016102e0565b9350610334604087016102e0565b9250610342606087016102e0565b9150610350608087016102e0565b90509295509295909350565b60805160a05160c05160e05161010051610120516101405161016051610180516101a0516101c0516101e05161020051610220516102405161026051610280516102a0516102c0516102e051615b1f6104fa5f395f81816105470152612b3a01525f81816107d4015261412401525f81816107ab015261220301525f81816107810152612bb001525f818161075201528181611007015261110a01525f818161072301528181610fdf01526110e201525f81816106f9015281816121b2015261222701525f81816106d3015261217701525f81816106aa0152610ec401525f8181610684015281816108cc01528181610d5d01528181611bcd015281816123c801528181612478015281816129fe01526149cc01525f8181610656015261498b01525f81816106300152611d5101525f818161060201526142ac01525f81816105d4015261428b01525f81816105a50152610e1801525f8181610576015261128f01525f61051801525f6104e901525f61018d01525f81816109180152818161096101528181610a5a01528181610a9a0152610b150152615b1f5ff3fe60806040526004361061017b575f3560e01c806379ba5097116100cd578063c3f909d411610087578063e30c397811610062578063e30c39781461084b578063ea19174314610868578063f09a401614610887578063f2fde38b146108a6575f5ffd5b8063c3f909d41461043c578063df596d9e1461080c578063e30533351461081f575f5ffd5b806379ba50971461037f5780638456cb59146103935780638abf6077146103a75780638da5cb5b146103bb5780639791e644146103d8578063ba2850bf146103f7575f5ffd5b806340df98661161013857806359db6e851161011357806359db6e85146102e85780635c975abb146103075780635ccc171814610327578063715018a61461036b575f5ffd5b806340df9866146102955780634f1ef286146102c157806352d1902d146102d4575f5ffd5b806304f3bcec1461017f5780630bb54ffd146101ca5780631ad4dd62146101f75780633075db56146102275780633659cfe6146102605780633f4ba83a14610281575b5f5ffd5b34801561018a575f5ffd5b507f00000000000000000000000000000000000000000000000000000000000000005b6040516001600160a01b0390911681526020015b60405180910390f35b3480156101d5575f5ffd5b506101e96101e4366004615047565b6108c5565b6040519081526020016101c1565b348015610202575f5ffd5b5060fb5461021790600160a01b900460ff1681565b60405190151581526020016101c1565b348015610232575f5ffd5b5060027fa5054f728453d3dbe953bdc43e4d0cb97e662ea32d7958190f3dc2da31d9721b5c60ff1614610217565b34801561026b575f5ffd5b5061027f61027a366004615076565b61090e565b005b34801561028c575f5ffd5b5061027f6109de565b3480156102a0575f5ffd5b506102b46102af366004615091565b610a39565b6040516101c191906150c8565b61027f6102cf366004615212565b610a50565b3480156102df575f5ffd5b506101e9610b09565b3480156102f3575f5ffd5b5061027f6103023660046152b7565b610bba565b348015610312575f5ffd5b5061021760c954610100900460ff1660021490565b348015610332575f5ffd5b5060ff546040805165ffffffffffff8084168252600160301b840481166020830152600160601b909304909216908201526060016101c1565b348015610376575f5ffd5b5061027f610c01565b34801561038a575f5ffd5b5061027f610c12565b34801561039e575f5ffd5b5061027f610c89565b3480156103b2575f5ffd5b506101ad610cde565b3480156103c6575f5ffd5b506033546001600160a01b03166101ad565b3480156103e3575f5ffd5b5061027f6103f236600461530b565b610cec565b348015610402575f5ffd5b50610416610411366004615375565b610faa565b6040805165ffffffffffff909316835265ffffffffffff199091166020830152016101c1565b348015610447575f5ffd5b506107ff60408051610240810182525f80825260208201819052918101829052606081018290526080810182905260a0810182905260c0810182905260e08101829052610100810182905261012081018290526101408101829052610160810182905261018081018290526101a081018290526101c081018290526101e0810182905261020081018290526102208101919091526040518061024001604052807f00000000000000000000000000000000000000000000000000000000000000006001600160a01b031681526020017f00000000000000000000000000000000000000000000000000000000000000006001600160a01b031681526020017f00000000000000000000000000000000000000000000000000000000000000006001600160a01b031681526020017f00000000000000000000000000000000000000000000000000000000000000006001600160a01b031681526020017f00000000000000000000000000000000000000000000000000000000000000006001600160a01b031681526020017f000000000000000000000000000000000000000000000000000000000000000065ffffffffffff1681526020017f000000000000000000000000000000000000000000000000000000000000000065ffffffffffff1681526020017f000000000000000000000000000000000000000000000000000000000000000081526020017f000000000000000000000000000000000000000000000000000000000000000065ffffffffffff1681526020017f000000000000000000000000000000000000000000000000000000000000000081526020017f000000000000000000000000000000000000000000000000000000000000000060ff1681526020017f000000000000000000000000000000000000000000000000000000000000000081526020017f000000000000000000000000000000000000000000000000000000000000000061ffff1681526020017f00000000000000000000000000000000000000000000000000000000000000006001600160401b031681526020017f00000000000000000000000000000000000000000000000000000000000000006001600160401b031681526020017f000000000000000000000000000000000000000000000000000000000000000061ffff1681526020017f000000000000000000000000000000000000000000000000000000000000000060ff1681526020017f000000000000000000000000000000000000000000000000000000000000000061ffff16815250905090565b6040516101c1919061539f565b61027f61081a36600461555b565b610fc0565b34801561082a575f5ffd5b506108336110c4565b6040516001600160401b0390911681526020016101c1565b348015610856575f5ffd5b506065546001600160a01b03166101ad565b348015610873575f5ffd5b5061027f61088236600461530b565b61118f565b348015610892575f5ffd5b5061027f6108a13660046155cf565b611303565b3480156108b1575f5ffd5b5061027f6108c0366004615076565b61142c565b5f806108f97f000000000000000000000000000000000000000000000000000000000000000065ffffffffffff851661560f565b5f90815260fc60205260409020549392505050565b6001600160a01b037f000000000000000000000000000000000000000000000000000000000000000016300361095f5760405162461bcd60e51b81526004016109569061562e565b60405180910390fd5b7f00000000000000000000000000000000000000000000000000000000000000006001600160a01b031661099161149d565b6001600160a01b0316146109b75760405162461bcd60e51b81526004016109569061567a565b6109c0816114b8565b604080515f808252602082019092526109db918391906114c0565b50565b6109e661162a565b6109fa60c9805461ff001916610100179055565b6040513381527f5db9ee0a495bf2e6ff9c91a7834c1ba4fdd244a5e8aa4e537bd38aeae4b073aa9060200160405180910390a1610a37335f61165b565b565b6060610a4760fe8484611663565b90505b92915050565b6001600160a01b037f0000000000000000000000000000000000000000000000000000000000000000163003610a985760405162461bcd60e51b81526004016109569061562e565b7f00000000000000000000000000000000000000000000000000000000000000006001600160a01b0316610aca61149d565b6001600160a01b031614610af05760405162461bcd60e51b81526004016109569061567a565b610af9826114b8565b610b05828260016114c0565b5050565b5f306001600160a01b037f00000000000000000000000000000000000000000000000000000000000000001614610ba85760405162461bcd60e51b815260206004820152603860248201527f555550535570677261646561626c653a206d757374206e6f742062652063616c60448201527f6c6564207468726f7567682064656c656761746563616c6c00000000000000006064820152608401610956565b505f516020615aa35f395f51905f5290565b60fb546001600160a01b03163314610be5576040516395383ea160e01b815260040160405180910390fd5b610bee816118a6565b5060fb80546001600160a01b0319169055565b610c09611990565b610a375f6119ea565b60655433906001600160a01b03168114610c805760405162461bcd60e51b815260206004820152602960248201527f4f776e61626c6532537465703a2063616c6c6572206973206e6f7420746865206044820152683732bb9037bbb732b960b91b6064820152608401610956565b6109db816119ea565b610c91611a03565b60c9805461ff0019166102001790556040513381527f62e78cea01bee320cd4e420270b5ea74000d11b0c9f74754ebdbfc544b05a2589060200160405180910390a1610a3733600161165b565b5f610ce761149d565b905090565b610cf4611a35565b610cfe6002611a7a565b5f610d098383611a83565b9050610d1481611ac9565b610d218160400151611ba7565b5f5f610d2c83611d27565b65ffffffffffff4316602083015290925090505f610d81836040810151905165ffffffffffff5f19929091038201167f0000000000000000000000000000000000000000000000000000000000000000030190565b11610d9f5760405163eaabac9b60e01b815260040160405180910390fd5b5f610db1338560c0015160ff1661208a565b905060405180604001604052805f15158152602001610dd38660600151612260565b9052815180515f198101908110610dec57610dec6156c6565b60200260200101819052505f8160200151610e9657604051635600026d60e11b81526001600160a01b037f0000000000000000000000000000000000000000000000000000000000000000169063ac0004da90610e519033908d908d90600401615702565b6020604051808303815f875af1158015610e6d573d5f5f3e3d5ffd5b505050506040513d601f19601f82011682018060405250810190610e919190615726565b610e98565b5f5b90505f6001430390505f60405180608001604052808365ffffffffffff168152602001834081526020017f000000000000000000000000000000000000000000000000000000000000000060ff168152602001855f015181525090505f6040518060c00160405280885f01805180919060010165ffffffffffff1665ffffffffffff1681525065ffffffffffff1681526020014265ffffffffffff1681526020018565ffffffffffff168152602001336001600160a01b03168152602001610f5f896123a1565b8152602001610f6d846123ab565b90528051909150610f8690610f81836123b5565b6123bf565b610f9281838989612409565b5050505050505050610fa46001611a7a565b50505050565b5f5f610fb68484612470565b9590945092505050565b604080516312b2aa9160e31b815260fe60048201526001600160401b037f0000000000000000000000000000000000000000000000000000000000000000811660248301527f0000000000000000000000000000000000000000000000000000000000000000166044820152825161ffff908116606483015260208401511660848201529082015162ffffff1660a48201525f9073__$2fed8a85c5d8c80938e5da852c59bfe0d4$__9063959554889060c401602060405180830381865af415801561108e573d5f5f3e3d5ffd5b505050506040513d601f19601f820116820180604052508101906110b29190615741565b90508015610b0557610b053382612528565b6040516343c3d71960e01b815260fe60048201526001600160401b037f0000000000000000000000000000000000000000000000000000000000000000811660248301527f00000000000000000000000000000000000000000000000000000000000000001660448201525f9073__$2fed8a85c5d8c80938e5da852c59bfe0d4$__906343c3d71990606401602060405180830381865af415801561116b573d5f5f3e3d5ffd5b505050506040513d601f19601f82011682018060405250810190610ce79190615758565b611197611a35565b6111a16002611a7a565b5f6111ac8585612533565b8051519091505f036111d157604051630a9d1de760e01b815260040160405180910390fd5b602081015151815151146111f8576040516359245e5f60e01b815260040160405180910390fd5b80604001515181602001515114611222576040516359245e5f60e01b815260040160405180910390fd5b61122b81612595565b8051515f9060010361126257815180515f90611249576112496156c6565b60200260200101516020015165ffffffffffff16420390505b5f611275836020015184604001516125be565b6040516314bcf3dd60e01b81529091506001600160a01b037f000000000000000000000000000000000000000000000000000000000000000016906314bcf3dd906112ca90859085908a908a9060040161577e565b5f6040518083038186803b1580156112e0575f5ffd5b505afa1580156112f2573d5f5f3e3d5ffd5b50505050505050610fa46001611a7a565b5f54610100900460ff161580801561132157505f54600160ff909116105b8061133a5750303b15801561133a57505f5460ff166001145b61139d5760405162461bcd60e51b815260206004820152602e60248201527f496e697469616c697a61626c653a20636f6e747261637420697320616c72656160448201526d191e481a5b9a5d1a585b1a5e995960921b6064820152608401610956565b5f805460ff1916600117905580156113be575f805461ff0019166101001790555b6113c7836125c9565b60fb80546001600160a01b0319166001600160a01b0384161790558015611427575f805461ff0019169055604051600181527f7f26b83ff96e1f2b6a682f133852f6798a09c465da95921460cefb38474024989060200160405180910390a15b505050565b611434611990565b606580546001600160a01b0383166001600160a01b031990911681179091556114656033546001600160a01b031690565b6001600160a01b03167f38d16b8cac22d99fc7c124b9cd0de2d3fa1faef420bfe791d8c362d765e2270060405160405180910390a350565b5f516020615aa35f395f51905f52546001600160a01b031690565b6109db611990565b7f4910fdfa16fed3260ed0e7147f7cc6da11a60208b5b9406d12a635614ffd91435460ff16156114f35761142783612627565b826001600160a01b03166352d1902d6040518163ffffffff1660e01b8152600401602060405180830381865afa92505050801561154d575060408051601f3d908101601f1916820190925261154a91810190615741565b60015b6115b05760405162461bcd60e51b815260206004820152602e60248201527f45524331393637557067726164653a206e657720696d706c656d656e7461746960448201526d6f6e206973206e6f74205555505360901b6064820152608401610956565b5f516020615aa35f395f51905f52811461161e5760405162461bcd60e51b815260206004820152602960248201527f45524331393637557067726164653a20756e737570706f727465642070726f786044820152681a58589b195555525160ba1b6064820152608401610956565b506114278383836126c2565b61163e60c954610100900460ff1660021490565b610a375760405163bae6e2a960e01b815260040160405180910390fd5b610b05611990565b600183015460609065ffffffffffff80821691600160301b9004811690851682118061169f57508065ffffffffffff168565ffffffffffff1610155b806116b0575065ffffffffffff8416155b1561171957604080515f808252602082019092529061170f565b6116fc6040805180820182525f8082528251606080820185528152602081810183905293810191909152909182015290565b8152602001906001900390816116ca5790505b509250505061189f565b5f61173165ffffffffffff87840381169087166126e6565b9050806001600160401b0381111561174b5761174b6151a6565b6040519080825280602002602001820160405280156117ae57816020015b61179b6040805180820182525f8082528251606080820185528152602081810183905293810191909152909182015290565b8152602001906001900390816117695790505b5093505f5b8181101561189a5765ffffffffffff871681015f90815260208981526040918290208251808401845281546001600160401b031681528351600183018054608081870284018101909752606083018181529396949587019492939192849291849184018282801561184157602002820191905f5260205f20905b81548152602001906001019080831161182d575b50505091835250506001919091015462ffffff811660208301526301000000900465ffffffffffff166040909101529052508551869083908110611887576118876156c6565b60209081029190910101526001016117b3565b505050505b9392505050565b6118ae614f24565b60408101516020018290526118c1614f64565b600180825260208201526118d4826126fa565b60808201526118e1614f64565b6118ea826123a1565b6080808301919091526040805191820181525f808352602083018190529082015260608082015261191a816123ab565b60a083015261192c5f610f81846123b5565b6119898282855f60405190808252806020026020018201604052801561198357816020015b604080516080810182525f8082526020808301829052928201819052606082015282525f199092019101816119515790505b50612409565b5050505050565b6033546001600160a01b03163314610a375760405162461bcd60e51b815260206004820181905260248201527f4f776e61626c653a2063616c6c6572206973206e6f7420746865206f776e65726044820152606401610956565b606580546001600160a01b03191690556109db81612704565b611a1760c954610100900460ff1660021490565b15610a375760405163bae6e2a960e01b815260040160405180910390fd5b60027fa5054f728453d3dbe953bdc43e4d0cb97e662ea32d7958190f3dc2da31d9721b5c60ff1603610a375760405163dfc60d8560e01b815260040160405180910390fd5b6109db81612755565b611a8b614f98565b610a4783838080601f0160208091040260200160405190810160405280939291908181526020018383808284375f9201919091525061277b92505050565b805165ffffffffffff161580611ae85750805165ffffffffffff164211155b611b055760405163559895a360e01b815260040160405180910390fd5b5f81604001515111611b2a57604051630a9d1de760e01b815260040160405180910390fd5b80602001516020015165ffffffffffff164311611b5a576040516349517a1d60e11b815260040160405180910390fd5b80604001515f81518110611b7057611b706156c6565b602002602001015160800151611b8982602001516123a1565b146109db5760405163baf3f0f760e01b815260040160405180910390fd5b611bc9815f81518110611bbc57611bbc6156c6565b60200260200101516129ec565b505f7f0000000000000000000000000000000000000000000000000000000000000000825f81518110611bfe57611bfe6156c6565b60200260200101515f015160010165ffffffffffff1681611c2157611c216155fb565b065f81815260fc602052604090205490915080611c5a5782516001146114275760405163f37a8b1360e01b815260040160405180910390fd5b8251600214611c7c5760405163f37a8b1360e01b815260040160405180910390fd5b825f81518110611c8e57611c8e6156c6565b60200260200101515f015165ffffffffffff1683600181518110611cb457611cb46156c6565b60200260200101515f015165ffffffffffff1610611ce55760405163010da6d360e41b815260040160405180910390fd5b611d0883600181518110611cfb57611cfb6156c6565b60200260200101516123b5565b81146114275760405163afb1de5f60e01b815260040160405180910390fd5b611d2f614f64565b6020820151604081015160808401515160609291600101905f9081904282805b7f0000000000000000000000000000000000000000000000000000000000000000811015611f3e57875f015165ffffffffffff168765ffffffffffff161015611f3e575f5f611da2898b60800151612470565b91509150858310611df35765ffffffffffff1982165f03611dc4575050611f3e565b8065ffffffffffff168510611dec576040516363debea160e01b815260040160405180910390fd5b5050611f3e565b65ffffffffffff1982165f03611e0a575050611f3e565b5f8d608001518481518110611e2157611e216156c6565b602002602001015190508265ffffffffffff1916611e3e82612a63565b65ffffffffffff191614611e655760405163c7e4985d60e01b815260040160405180910390fd5b65ffffffffffff8a166040808d019190915281015160808c01526020810151515f5b81811015611ec757611eba8d60a0015184602001518381518110611ead57611ead6156c6565b6020026020010151612a6d565b60a08e0152600101611e87565b5081519581019560ff16611eee5760405163ef98fad760e01b815260040160405180910390fd5b81518c5160ff9091168c019065ffffffffffff9081169082161115611f265760405163320f10ed60e01b815260040160405180910390fd5b9a509398505060019687019688019250611d4f915050565b508315611f7557611f758a60a001518b608001518781518110611f6357611f636156c6565b60200260200101516060015189612ad2565b801561207b57806001600160401b03811115611f9357611f936151a6565b604051908082528060200260200182016040528015611fe357816020015b604080516080810182525f8082526020808301829052928201819052606082015282525f19909201910181611fb15790505b5097505f5f5b85811015612078575f8c608001518281518110612008576120086156c6565b60200260200101516020015190505f815190505f5b8181101561206a57828181518110612037576120376156c6565b60200260200101518d8680600101975081518110612057576120576156c6565b602090810291909101015260010161201d565b505050806001019050611fe9565b50505b86985050505050505050915091565b60408051808201909152606081525f602082015260ff5460fe9065ffffffffffff80821691600160301b8104821691600160601b909104811690838303165f8188116120d657876120d8565b815b9050806001016001600160401b038111156120f5576120f56151a6565b60405190808252806020026020018201604052801561215857816020015b6121456040805180820182525f8082528251606080820185528152602081810183905293810191909152909182015290565b8152602001906001900390816121135790505b508088525f9061216e9088908c90898887612c09565b909750945090507f0000000000000000000000000000000000000000000000000000000000000000891080156121a357508183115b156121f9575f6121d6888888887f0000000000000000000000000000000000000000000000000000000000000000612de4565b905080156121f75760405163014b3fdb60e11b815260040160405180910390fd5b505b65ffffffffffff167f000000000000000000000000000000000000000000000000000000000000000060ff167f000000000000000000000000000000000000000000000000000000000000000061ffff160201421160208801525094979650505050505050565b604080516060808201835281525f6020808301829052928201529082015161ffff1661229f5760405163fdac229f60e01b815260040160405180910390fd5b5f826020015161ffff166001600160401b038111156122c0576122c06151a6565b6040519080825280602002602001820160405280156122e9578160200160208202803683370190505b5090505f5b836020015161ffff1681101561237157835161230f90829061ffff166157b1565b49828281518110612322576123226156c6565b602002602001018181525050818181518110612340576123406156c6565b60200260200101515f5f1b0361236957604051637bb2fa2f60e11b815260040160405180910390fd5b6001016122ee565b50604080516060810182529182529283015162ffffff16602082015265ffffffffffff4216928101929092525090565b5f610a4a82612e61565b5f610a4a82612ebc565b5f610a4a82613056565b8060fc5f6123f57f000000000000000000000000000000000000000000000000000000000000000065ffffffffffff871661560f565b815260208101919091526040015f20555050565b6040805160808101825285815260208101859052908101839052606081018290527f10b2060c55406ea48522476f67fd813d4984b12078555d3e2a377e35839d7d01612454826130cd565b60405161246191906157f2565b60405180910390a15050505050565b5f80806124a57f000000000000000000000000000000000000000000000000000000000000000065ffffffffffff871661560f565b5f8181526101256020526040902080549192509065ffffffffffff87811691161480156124e85750805465ffffffffffff19868116600160301b90920460301b16145b156125105760010154603081901b9350600160d01b900465ffffffffffff1691506125219050565b61251a86866130d8565b9350935050505b9250929050565b610b0582825a613112565b61255760405180606001604052806060815260200160608152602001606081525090565b610a4783838080601f0160208091040260200160405190810160405280939291908181526020018383808284375f9201919091525061315592505050565b8051515f036125a15750565b8051516001036125b5576109db815f6133c4565b6109db816134d0565b5f610a4783836137fb565b5f54610100900460ff166125ef5760405162461bcd60e51b815260040161095690615804565b6125f76139a3565b6126156001600160a01b0382161561260f57816119ea565b336119ea565b5060c9805461ff001916610100179055565b6001600160a01b0381163b6126945760405162461bcd60e51b815260206004820152602d60248201527f455243313936373a206e657720696d706c656d656e746174696f6e206973206e60448201526c1bdd08184818dbdb9d1c9858dd609a1b6064820152608401610956565b5f516020615aa35f395f51905f5280546001600160a01b0319166001600160a01b0392909216919091179055565b6126cb836139c9565b5f825111806126d75750805b1561142757610fa48383613a08565b5f8183116126f45782610a47565b50919050565b5f610a4a82613a2d565b603380546001600160a01b038381166001600160a01b0319831681179093556040519116919082907f8be0079c531659141344cd1fd0a4f28419497f9722a3daafe3b4186f6b6457e0905f90a35050565b807fa5054f728453d3dbe953bdc43e4d0cb97e662ea32d7958190f3dc2da31d9721b5d50565b612783614f98565b60208281015160d090811c83526026840151838301805191831c909152602c850151815190831c9301929092526032840151825190821c60409091015260388401518251911c606090910152603e8301518151608090810191909152605e840151915160a00191909152607e8301519083019060f01c806001600160401b03811115612811576128116151a6565b60405190808252806020026020018201604052801561284a57816020015b612837614f64565b81526020019060019003908161282f5790505b5060408401525f5b8161ffff168110156128955761286783613a47565b8560400151838151811061287d5761287d6156c6565b60209081029190910101919091529250600101612852565b50815160608401805160f092831c90526002840151815190831c6020909101526004840151905160e89190911c604091909101526007830151600990930192901c806001600160401b038111156128ee576128ee6151a6565b60405190808252806020026020018201604052801561294a57816020015b61293760405180608001604052805f60ff168152602001606081526020015f81526020015f81525090565b81526020019060019003908161290c5790505b5060808501525f5b8161ffff168110156129955761296784613aa4565b8660800151838151811061297d5761297d6156c6565b60209081029190910101919091529350600101612952565b50825160019384019360f89190911c908190036129da57835160a08601805160d09290921c909152600685015181516020015260268501519051604001526046909301925b5050905160f81c60c083015250919050565b5f6129f6826123b5565b90505f60fc5f7f0000000000000000000000000000000000000000000000000000000000000000855f015165ffffffffffff16612a33919061560f565b81526020019081526020015f205490508082146126f45760405163255b08fb60e01b815260040160405180910390fd5b5f610a4a82613bb5565b80515f9065ffffffffffff161580612a9957505f82602001516002811115612a9757612a9761584f565b145b612acb578282604051602001612ab09291906158b9565b60405160208183030381529060405280519060200120610a47565b5090919050565b602083015115612bae575f612ae684613d06565b9050828114612b0857604051632db7a22b60e11b815260040160405180910390fd5b60408051631934171960e31b8152855165ffffffffffff166004820152602086015160248201529085015160448201527f00000000000000000000000000000000000000000000000000000000000000006001600160a01b03169063c9a0b8c8906064015f604051808303815f87803b158015612b83575f5ffd5b505af1158015612b95573d5f5f3e3d5ffd5b50505065ffffffffffff42166060840152506114279050565b7f000000000000000000000000000000000000000000000000000000000000000061ffff168160600151612be291906158cd565b65ffffffffffff16421061142757604051632f8bb2a760e01b815260040160405180910390fd5b5f80808315612dc9575f5f5b85811015612d025765ffffffffffff881681015f90815260208c815260409182902082518084018452600180825284519083018054608081870284018101909752606083018181529496939586019492939192849290918491840182828015612c9b57602002820191905f5260205f20905b815481526020019060010190808311612c87575b50505091835250506001919091015462ffffff811660208301526301000000900465ffffffffffff1660409091015290528a518b9084908110612ce057612ce06156c6565b6020908102919091010152546001600160401b03169190910190600101612c15565b508015612d2a57612d2a612d1a82633b9aca006158eb565b6001600160a01b038b1690612528565b612d6e8665ffffffffffff16895f81518110612d4857612d486156c6565b6020026020010151602001516040015165ffffffffffff16613d1090919063ffffffff16565b9350612d7a85886158cd565b60018b01805471ffffffffffff000000000000ffffffffffff1916600160601b4265ffffffffffff8181169290920265ffffffffffff191692909217908416179091559093509150612dd89050565b5065ffffffffffff9150849050835b96509650969350505050565b5f8365ffffffffffff168565ffffffffffff1603612e0357505f612e58565b65ffffffffffff8086165f908152602088905260408120600201546301000000900490911690819003612e39575f915050612e58565b61ffff8316612e508265ffffffffffff8716613d10565b014210159150505b95945050505050565b805160208083015160408085015160608087015160808089015160a0808b0151875165ffffffffffff9b8c168152988b169989019990995294891695870195909552961690840152938201529182015260c090205f90610a4a565b5f5f60c0836040015160ff16901b60d0845f015165ffffffffffff16901b175f1b90505f5f8460600151519050805f03612f05575f516020615a835f395f51905f529150613034565b80600103612f4e57612f47815f1b612f3987606001515f81518110612f2c57612f2c6156c6565b6020026020010151613d1e565b5f9182526020526040902090565b9150613034565b80600203612fa957612f47815f1b612f7587606001515f81518110612f2c57612f2c6156c6565b612f8f8860600151600181518110612f2c57612f2c6156c6565b604080519384526020840192909252908201526060902090565b604080516001830181526002830160051b8101909152602081018290525f5b82811015613009576130008282600101612ff18a606001518581518110612f2c57612f2c6156c6565b60019190910160051b82015290565b50600101612fc8565b50805160051b602082012092506130328180516040516001820160051b83011490151060061b52565b505b6020808601516040805186815292830191909152810183905260609020612e58565b5f5f6070836040015165ffffffffffff16901b60a0846020015165ffffffffffff16901b60d0855f015165ffffffffffff16901b17175f1b905061189f8184606001516001600160a01b03165f1b85608001518660a001516040805194855260208501939093529183015260608201526080902090565b6060610a4a82613d96565b5f5f5f6130e58585614110565b5f90815260fd6020526040902054603081901b96600160d01b90910465ffffffffffff1695509350505050565b815f0361311e57505050565b61313883838360405180602001604052805f81525061415a565b61142757604051634c67134d60e11b815260040160405180910390fd5b61317960405180606001604052806060815260200160608152602001606081525090565b6020820151602283019060f01c806001600160401b0381111561319e5761319e6151a6565b6040519080825280602002602001820160405280156131d757816020015b6131c4614f64565b8152602001906001900390816131bc5790505b5083525f5b8161ffff1681101561321d576131f183614197565b8551805184908110613205576132056156c6565b602090810291909101019190915292506001016131dc565b50815160029092019160f01c61ffff8216811461324d57604051632e0b3ebf60e11b815260040160405180910390fd5b8061ffff166001600160401b03811115613269576132696151a6565b6040519080825280602002602001820160405280156132a257816020015b61328f614f24565b8152602001906001900390816132875790505b5060208501525f5b8161ffff168110156132ed576132bf846141df565b866020015183815181106132d5576132d56156c6565b602090810291909101019190915293506001016132aa565b508061ffff166001600160401b0381111561330a5761330a6151a6565b60405190808252806020026020018201604052801561334e57816020015b604080518082019091525f80825260208201528152602001906001900390816133285790505b5060408501525f5b8161ffff168110156133bb57604080518082019091525f808252602082019081528551606090811c83526014870151901c905260288501866040015183815181106133a3576133a36156c6565b60209081029190910101919091529350600101613356565b50505050919050565b613407825f015182815181106133dc576133dc6156c6565b6020026020010151836020015183815181106133fa576133fa6156c6565b6020026020010151614229565b5f613469835f01518381518110613420576134206156c6565b60200260200101518460200151848151811061343e5761343e6156c6565b60200260200101518560400151858151811061345c5761345c6156c6565b6020026020010151614257565b9050611427835f01518381518110613483576134836156c6565b60200260200101515f0151846020015184815181106134a4576134a46156c6565b6020026020010151856040015185815181106134c2576134c26156c6565b602002602001015184614302565b5f5b8151518110156134fc576134f4825f015182815181106133dc576133dc6156c6565b6001016134d2565b505f613552825f01515f81518110613516576135166156c6565b602002602001015183602001515f81518110613534576135346156c6565b602002602001015184604001515f8151811061345c5761345c6156c6565b90505f825f01515f8151811061356a5761356a6156c6565b60209081029190910101515190505f60015b8451518110156137b457835f015160ff16830165ffffffffffff16855f015182815181106135ac576135ac6156c6565b60200260200101515f015165ffffffffffff16036136eb575f613619865f015183815181106135dd576135dd6156c6565b6020026020010151876020015184815181106135fb576135fb6156c6565b60200260200101518860400151858151811061345c5761345c6156c6565b602081015151909150156136c8578460200151515f0361364257602080820151908601526136c8565b60208086015190820151604051633db5e02560e21b815273__$1bd1cb69ca6a9394f03fb41d0d0772b1da$__9263f6d780949261368192600401615947565b5f60405180830381865af415801561369b573d5f5f3e3d5ffd5b505050506040513d5f823e601f3d908101601f191682016040526136c2919081019061596b565b60208601525b6040818101519086015260609081015190850152835160010160ff1684526137ac565b6137318386602001518481518110613705576137056156c6565b602002602001015187604001518581518110613723576137236156c6565b602002602001015187614302565b8451805182908110613745576137456156c6565b60200260200101515f015192508091506137a9855f0151828151811061376d5761376d6156c6565b60200260200101518660200151838151811061378b5761378b6156c6565b60200260200101518760400151848151811061345c5761345c6156c6565b93505b60010161357c565b50610fa482856020015183815181106137cf576137cf6156c6565b6020026020010151866040015184815181106137ed576137ed6156c6565b602002602001015186614302565b5f815183511461381e5760405163b1f40f7760e01b815260040160405180910390fd5b82515f81900361383e575f516020615a835f395f51905f52915050610a4a565b806001036138a1575f613883855f8151811061385c5761385c6156c6565b6020026020010151855f81518110613876576138766156c6565b6020026020010151614392565b905061389882825f9182526020526040902090565b92505050610a4a565b80600203613915575f6138bf855f8151811061385c5761385c6156c6565b90505f6138f3866001815181106138d8576138d86156c6565b602002602001015186600181518110613876576138766156c6565b6040805194855260208501939093529183019190915250606090209050610a4a565b604080516001830181526002830160051b8101909152602081018290525f5b8281101561397c576139738282600101612ff1898581518110613959576139596156c6565b6020026020010151898681518110613876576138766156c6565b50600101613934565b50805160051b6020820120612e588280516040516001820160051b83011490151060061b52565b5f54610100900460ff16610a375760405162461bcd60e51b815260040161095690615804565b6139d281612627565b6040516001600160a01b038216907fbc7cd75a20ee27fd9adebab32041f755214dbc6bffa90cc0225b39da2e5c2d3b905f90a250565b6060610a478383604051806060016040528060278152602001615ac3602791396143e5565b5f610a4a825f01518360200151612f8f8560400151614459565b613a4f614f64565b815160d090811c82526006830151811c6020830152600c830151901c60408201526012820151606090811c90820152602682018051604684015b6080840191909152805160a084015291936020909201925050565b613acf60405180608001604052805f60ff168152602001606081526020015f81526020015f81525090565b815160f81c81526001820151600383019060f01c806001600160401b03811115613afb57613afb6151a6565b604051908082528060200260200182016040528015613b4b57816020015b604080516080810182525f8082526020808301829052928201819052606082015282525f19909201910181613b195790505b5060208401525f5b8161ffff16811015613b9657613b688361448a565b85602001518381518110613b7e57613b7e6156c6565b60209081029190910101919091529250600101613b53565b5050805160408381019190915260208201516060840152919391019150565b6020810151515f908190808203613bdb575f516020615a835f395f51905f529150613cd3565b80600103613c1657613c0f815f1b612f3986602001515f81518110613c0257613c026156c6565b6020026020010151614522565b9150613cd3565b80600203613c5757613c0f815f1b613c3d86602001515f81518110613c0257613c026156c6565b612f8f8760200151600181518110613c0257613c026156c6565b604080516001830181526002830160051b8101909152602081018290525f5b82811015613ca857613c9f8282600101612ff189602001518581518110613c0257613c026156c6565b50600101613c76565b50805160051b60208201209250613cd18180516040516001820160051b83011490151060061b52565b505b8351604080860151606080880151835160ff90951685526020850187905292840191909152820152608090205f90612e58565b5f610a4a82614459565b5f818311612acb5781610a47565b5f5f613d3083602001515f015161458e565b60208085015180820151604091820151825185815262ffffff9092169382019390935265ffffffffffff9092169082015260609020909150613d8e845f0151613d79575f613d7c565b60015b60ff16825f9182526020526040902090565b949350505050565b60605f613daf83602001516060015184606001516146c9565b9050806001600160401b03811115613dc957613dc96151a6565b6040519080825280601f01601f191660200182016040528015613df3576020820181803683370190505b5083515160d090811b6020838101919091528551606090810151901b60268401528551810151821b603a8401528551604090810151831b8185015281870180515190931b6046850152825190910151604c84015290510151909250606c830190613e5e908290614719565b60208501516060015151909150613e7481614725565b613e84828260f01b815260020190565b91505f5b81811015613ff757613ecb838760200151606001518381518110613eae57613eae6156c6565b60200260200101515f0151613ec3575f614719565b60015b614719565b92505f8660200151606001518281518110613ee857613ee86156c6565b6020026020010151602001515f0151519050613f0381614725565b613f13848260f01b815260020190565b93505f5b81811015613f7757613f6d858960200151606001518581518110613f3d57613f3d6156c6565b6020026020010151602001515f01518381518110613f5d57613f5d6156c6565b6020026020010151815260200190565b9450600101613f17565b50613fb1848860200151606001518481518110613f9657613f966156c6565b6020026020010151602001516020015160e81b815260030190565b9350613fec848860200151606001518481518110613fd157613fd16156c6565b6020026020010151602001516040015160d01b815260060190565b935050600101613e88565b5084516080908101518352855160a090810151602080860191909152604080890180515160d090811b83890152815190930151831b6046880152805190910151821b604c870152805160609081015190921b605287015280519093015160588601529151015160788401528501515160989092019161407581614725565b614085838260f01b815260020190565b92505f5b81811015614106575f876060015182815181106140a8576140a86156c6565b602002602001015190506140c585825f015160d01b815260060190565b94506140e18582602001516002811115613ec657613ec661584f565b6040820151606090811b82529182015190911b60148201526028019350600101614089565b5050505050919050565b6040805165ffffffffffff8416815261ffff7f0000000000000000000000000000000000000000000000000000000000000000166020820152908101829052606090205f90610a47565b5f6001600160a01b03851661418257604051634c67134d60e11b815260040160405180910390fd5b5f5f835160208501878988f195945050505050565b61419f614f64565b815160d090811c82526006830151606090811c90830152601a830151811c602080840191909152830151901c604082015260268201805160468401613a89565b6141e7614f24565b8151815260208083015182820152604080840151818401805160d09290921c909152604685015181519093019290925260668401519151015291608690910190565b5f614233836129ec565b8251909150811461142757604051630ca6f72960e01b815260040160405180910390fd5b61428260405180608001604052805f60ff168152602001606081526020015f81526020015f81525090565b600181526142d27f00000000000000000000000000000000000000000000000000000000000000007f00000000000000000000000000000000000000000000000000000000000000008685614748565b60208201526142e0836126fa565b8160400181815250506142f68360400151613d06565b60608201529392505050565b5f5f61430d8361494e565b9150915061432186866020015184846149c6565b6040805160808101825265ffffffffffff8816815260208101879052908101849052606081018590527fb2d5049ba96efb9e1fee66a51e4e6cbdfa2949627891ee29c6e4281abb8da03c61437482614b66565b60405161438191906157f2565b60405180910390a150505050505050565b5f610a47835f015184602001516143ac8660400151614459565b855160208088015160408051968752918601949094528401919091526001600160a01b03908116606084015216608082015260a0902090565b60605f5f856001600160a01b0316856040516144019190615a6c565b5f60405180830381855af49150503d805f8114614439576040519150601f19603f3d011682016040523d82523d5f602084013e61443e565b606091505b509150915061444f86838387614b71565b9695505050505050565b8051602080830151604080850151815165ffffffffffff909516855292840191909152820152606090205f90610a4a565b604080516080810182525f808252602082018190529181018290526060810191909152815160d01c81526006820151600783019060f81c8060028111156144d3576144d361584f565b836020019060028111156144e9576144e961584f565b908160028111156144fc576144fc61584f565b905250508051606090811c60408401526014820151811c90830152909260289091019150565b5f610a4a825f015165ffffffffffff165f1b8360200151600281111561454a5761454a61584f565b60ff165f1b84604001516001600160a01b03165f1b85606001516001600160a01b03165f1b6040805194855260208501939093529183015260608201526080902090565b80515f908082036145ae57505f516020615a835f395f51905f5292915050565b806001036145e45761189f815f1b845f815181106145ce576145ce6156c6565b60200260200101515f9182526020526040902090565b806002036146415761189f815f1b845f81518110614604576146046156c6565b60200260200101518560018151811061461f5761461f6156c6565b6020026020010151604080519384526020840192909252908201526060902090565b604080516001830181526002830160051b8101909152602081018290525f5b828110156146a2576146998282600101878481518110614682576146826156c6565b602002602001015160019190910160051b82015290565b50600101614660565b50805160051b6020820120613d8e8280516040516001820160051b83011490151060061b52565b60e95f5b835181101561470d578381815181106146e8576146e86156c6565b6020026020010151602001515f015151602002600c01820191508060010190506146cd565b509051602f0201919050565b5f818353505060010190565b61ffff8111156109db5760405163161e7a6b60e11b815260040160405180910390fd5b60208201516060904290860165ffffffffffff168082116147b457604080515f80825260208201909252906147aa565b604080516080810182525f8082526020808301829052928201819052606082015282525f199092019101816147785790505b5092505050613d8e565b6020850151860165ffffffffffff16808311155f816147f05786602001516001600160a01b031688606001516001600160a01b0316141561480e565b86602001516001600160a01b0316875f01516001600160a01b031614155b90508061486957604080515f808252602082019092529061485c565b604080516080810182525f8082526020808301829052928201819052606082015282525f1990920191018161482a5790505b5095505050505050613d8e565b60408051600180825281830190925290816020015b604080516080810182525f8082526020808301829052928201819052606082015282525f1990920191018161487e5790505095506040518060800160405280895f015165ffffffffffff168152602001836148da5760016148dd565b60025b60028111156148ee576148ee61584f565b815260200183614902578960600151614905565b88515b6001600160a01b0316815260200188602001516001600160a01b0316815250865f81518110614936576149366156c6565b60200260200101819052505050505050949350505050565b604080518082019091525f808252602082018190529061496d83612a63565b915060405180604001604052808365ffffffffffff191681526020017f000000000000000000000000000000000000000000000000000000000000000065ffffffffffff16420165ffffffffffff168152509050915091565b5f6149f97f000000000000000000000000000000000000000000000000000000000000000065ffffffffffff871661560f565b5f81815261012560205260409020805491925090859065ffffffffffff888116911614614a5857603081811c600160301b0265ffffffffffff808a1691909117845585516020870151909116600160d01b02911c176001830155614b5d565b815465ffffffffffff19808316600160301b90920460301b1603614b5157600182015460301b65ffffffffffff1981165f03614ab4578451602086015165ffffffffffff16600160d01b0260309190911c176001840155614b4b565b65ffffffffffff1980871690821603614af4576040517ff1846d1634477b5b2542d27b601bfcaa46ebc2bff80f941c2b07f862778e491b905f90a1614b4b565b6040517fedbbc170a31039722f1b233fdedcee87c58f692be26627dc755b33f28537c627905f90a160fb805460ff60a01b1916600160a01b1790556001830180546001600160d01b03166001600160d01b03191790555b50614b5d565b614b5d87878787614be9565b50505050505050565b6060610a4a82614cd6565b60608315614bdf5782515f03614bd8576001600160a01b0385163b614bd85760405162461bcd60e51b815260206004820152601d60248201527f416464726573733a2063616c6c20746f206e6f6e2d636f6e74726163740000006044820152606401610956565b5081613d8e565b613d8e8383614ef5565b5f614bf48585614110565b5f81815260fd6020526040812080549293509160301b9065ffffffffffff1982169003614c3b57602084015165ffffffffffff16600160d01b02603086901c178255614b5d565b65ffffffffffff1980861690821603614c7b576040517ff1846d1634477b5b2542d27b601bfcaa46ebc2bff80f941c2b07f862778e491b905f90a1614b5d565b6040517fedbbc170a31039722f1b233fdedcee87c58f692be26627dc755b33f28537c627905f90a160fb805460ff60a01b1916600160a01b17905581546001600160d01b03166001600160d01b031917825550505050505050565b60408101516020015151606090602f0260f701806001600160401b03811115614d0157614d016151a6565b6040519080825280601f01601f191660200182016040528015614d2b576020820181803683370190505b50835160d090811b60208381019190915280860180515160268501528051820151604685015280516040908101515190931b6066850152805183015190910151606c84015251810151810151608c8301528401515190925060ac830190614d93908290614719565b6040858101805182015183528051606090810151602080860191909152818901805151831b948601949094529251830151901b60548401525101515160689091019150614ddf90614725565b6040840151602001515160f01b81526002015f5b84604001516020015151811015614eed57614e38828660400151602001518381518110614e2257614e226156c6565b60200260200101515f015160d01b815260060190565b9150614e75828660400151602001518381518110614e5857614e586156c6565b6020026020010151602001516002811115613ec657613ec661584f565b9150614eac828660400151602001518381518110614e9557614e956156c6565b60200260200101516040015160601b815260140190565b9150614ee3828660400151602001518381518110614ecc57614ecc6156c6565b60200260200101516060015160601b815260140190565b9150600101614df3565b505050919050565b815115614f055781518083602001fd5b8060405162461bcd60e51b815260040161095691906157f2565b905290565b60405180606001604052805f81526020015f8152602001614f1f60405180606001604052805f65ffffffffffff1681526020015f81526020015f81525090565b6040805160c0810182525f80825260208201819052918101829052606081018290526080810182905260a081019190915290565b6040518060e001604052805f65ffffffffffff168152602001614fb9614f64565b815260200160608152602001614ff360405180606001604052805f61ffff1681526020015f61ffff1681526020015f62ffffff1681525090565b81526020016060815260200161502860405180606001604052805f65ffffffffffff1681526020015f81526020015f81525090565b81525f60209091015290565b65ffffffffffff811681146109db575f5ffd5b5f60208284031215615057575f5ffd5b813561189f81615034565b6001600160a01b03811681146109db575f5ffd5b5f60208284031215615086575f5ffd5b813561189f81615062565b5f5f604083850312156150a2575f5ffd5b82356150ad81615034565b915060208301356150bd81615034565b809150509250929050565b5f602082016020835280845180835260408501915060408160051b8601019250602086015f5b8281101561519a57868503603f19018452815180516001600160401b0316865260209081015160408288018190528151606091890191909152805160a08901819052919201905f9060c08901905b8083101561515f578351825260208201915060208401935060018301925061513c565b5060208481015162ffffff1660608b015260409094015165ffffffffffff1660809099019890985250509384019391909101906001016150ee565b50929695505050505050565b634e487b7160e01b5f52604160045260245ffd5b604051608081016001600160401b03811182821017156151dc576151dc6151a6565b60405290565b604051601f8201601f191681016001600160401b038111828210171561520a5761520a6151a6565b604052919050565b5f5f60408385031215615223575f5ffd5b823561522e81615062565b915060208301356001600160401b03811115615248575f5ffd5b8301601f81018513615258575f5ffd5b80356001600160401b03811115615271576152716151a6565b615284601f8201601f19166020016151e2565b818152866020838501011115615298575f5ffd5b816020840160208301375f602083830101528093505050509250929050565b5f602082840312156152c7575f5ffd5b5035919050565b5f5f83601f8401126152de575f5ffd5b5081356001600160401b038111156152f4575f5ffd5b602083019150836020828501011115612521575f5ffd5b5f5f5f5f6040858703121561531e575f5ffd5b84356001600160401b03811115615333575f5ffd5b61533f878288016152ce565b90955093505060208501356001600160401b0381111561535d575f5ffd5b615369878288016152ce565b95989497509550505050565b5f5f60408385031215615386575f5ffd5b823561539181615034565b946020939093013593505050565b81516001600160a01b03168152610240810160208301516153cb60208401826001600160a01b03169052565b5060408301516153e660408401826001600160a01b03169052565b50606083015161540160608401826001600160a01b03169052565b50608083015161541c60808401826001600160a01b03169052565b5060a083015161543660a084018265ffffffffffff169052565b5060c083015161545060c084018265ffffffffffff169052565b5060e083015160e083015261010083015161547661010084018265ffffffffffff169052565b5061012083015161012083015261014083015161549961014084018260ff169052565b506101608301516101608301526101808301516154bd61018084018261ffff169052565b506101a08301516154da6101a08401826001600160401b03169052565b506101c08301516154f76101c08401826001600160401b03169052565b506101e083015161550f6101e084018261ffff169052565b5061020083015161552661020084018260ff169052565b5061022083015161553e61022084018261ffff169052565b5092915050565b803561ffff81168114615556575f5ffd5b919050565b5f606082840312801561556c575f5ffd5b50604051606081016001600160401b038111828210171561558f5761558f6151a6565b60405261559b83615545565b81526155a960208401615545565b6020820152604083013562ffffff811681146155c3575f5ffd5b60408201529392505050565b5f5f604083850312156155e0575f5ffd5b82356155eb81615062565b915060208301356150bd81615062565b634e487b7160e01b5f52601260045260245ffd5b5f8261562957634e487b7160e01b5f52601260045260245ffd5b500690565b6020808252602c908201527f46756e6374696f6e206d7573742062652063616c6c6564207468726f7567682060408201526b19195b1959d85d1958d85b1b60a21b606082015260800190565b6020808252602c908201527f46756e6374696f6e206d7573742062652063616c6c6564207468726f7567682060408201526b6163746976652070726f787960a01b606082015260800190565b634e487b7160e01b5f52603260045260245ffd5b81835281816020850137505f828201602090810191909152601f909101601f19169091010190565b6001600160a01b03841681526040602082018190525f90612e5890830184866156da565b5f60208284031215615736575f5ffd5b815161189f81615034565b5f60208284031215615751575f5ffd5b5051919050565b5f60208284031215615768575f5ffd5b81516001600160401b038116811461189f575f5ffd5b848152836020820152606060408201525f61444f6060830184866156da565b634e487b7160e01b5f52601160045260245ffd5b80820180821115610a4a57610a4a61579d565b5f81518084528060208401602086015e5f602082860101526020601f19601f83011685010191505092915050565b602081525f610a4760208301846157c4565b6020808252602b908201527f496e697469616c697a61626c653a20636f6e7472616374206973206e6f74206960408201526a6e697469616c697a696e6760a81b606082015260800190565b634e487b7160e01b5f52602160045260245ffd5b65ffffffffffff815116825260208101516003811061589057634e487b7160e01b5f52602160045260245ffd5b60208301526040818101516001600160a01b039081169184019190915260609182015116910152565b82815260a0810161189f6020830184615863565b65ffffffffffff8181168382160190811115610a4a57610a4a61579d565b8082028115828204841417610a4a57610a4a61579d565b5f8151808452602084019350602083015f5b8281101561593d57615927868351615863565b6080959095019460209190910190600101615914565b5093949350505050565b604081525f6159596040830185615902565b8281036020840152612e588185615902565b5f6020828403121561597b575f5ffd5b81516001600160401b03811115615990575f5ffd5b8201601f810184136159a0575f5ffd5b80516001600160401b038111156159b9576159b96151a6565b6159c860208260051b016151e2565b8082825260208201915060208360071b8501019250868311156159e9575f5ffd5b6020840193505b8284101561444f5760808488031215615a07575f5ffd5b615a0f6151ba565b8451615a1a81615034565b8152602085015160038110615a2d575f5ffd5b60208201526040850151615a4081615062565b60408201526060850151615a5381615062565b60608201528252608093909301926020909101906159f0565b5f82518060208501845e5f92019182525091905056fec5d2460186f7233c927e7db2dcc703c0e500b653ca82273b7bfad8045d85a470360894a13ba1a3210667c828492db98dca3e2076cc3735a920a3ca505d382bbc416464726573733a206c6f772d6c6576656c2064656c65676174652063616c6c206661696c6564a26469706673582212204376eca5405ed686b0ad4d128d522c6d7747ad729c8f7d29b0adecf92dae4cc664736f6c634300081e0033","linkReferences":{"contracts/layer1/core/libs/LibBondInstruction.sol":{"LibBondInstruction":[{"start":15189,"length":20}]},"contracts/layer1/core/libs/LibForcedInclusion.sol":{"LibForcedInclusion":[{"start":5456,"length":20},{"start":5677,"length":20}]}}},"methodIdentifiers":{"acceptOwnership()":"79ba5097","activate(bytes32)":"59db6e85","conflictingTransitionDetected()":"1ad4dd62","getConfig()":"c3f909d4","getCurrentForcedInclusionFee()":"e3053335","getForcedInclusionState()":"5ccc1718","getForcedInclusions(uint48,uint48)":"40df9866","getProposalHash(uint48)":"0bb54ffd","getTransitionRecordHash(uint48,bytes32)":"ba2850bf","impl()":"8abf6077","inNonReentrant()":"3075db56","init(address,address)":"f09a4016","owner()":"8da5cb5b","pause()":"8456cb59","paused()":"5c975abb","pendingOwner()":"e30c3978","propose(bytes,bytes)":"9791e644","prove(bytes,bytes)":"ea191743","proxiableUUID()":"52d1902d","renounceOwnership()":"715018a6","resolver()":"04f3bcec","saveForcedInclusion((uint16,uint16,uint24))":"df596d9e","transferOwnership(address)":"f2fde38b","unpause()":"3f4ba83a","upgradeTo(address)":"3659cfe6","upgradeToAndCall(address,bytes)":"4f1ef286"},"storageLayout":{"storage":[{"astId":32426,"contract":"contracts/layer1/devnet/DevnetInbox.sol:DevnetInbox","label":"_initialized","offset":0,"slot":"0","type":"t_uint8"},{"astId":32429,"contract":"contracts/layer1/devnet/DevnetInbox.sol:DevnetInbox","label":"_initializing","offset":1,"slot":"0","type":"t_bool"},{"astId":37260,"contract":"contracts/layer1/devnet/DevnetInbox.sol:DevnetInbox","label":"__gap","offset":0,"slot":"1","type":"t_array(t_uint256)50_storage"},{"astId":32171,"contract":"contracts/layer1/devnet/DevnetInbox.sol:DevnetInbox","label":"_owner","offset":0,"slot":"51","type":"t_address"},{"astId":32291,"contract":"contracts/layer1/devnet/DevnetInbox.sol:DevnetInbox","label":"__gap","offset":0,"slot":"52","type":"t_array(t_uint256)49_storage"},{"astId":32064,"contract":"contracts/layer1/devnet/DevnetInbox.sol:DevnetInbox","label":"_pendingOwner","offset":0,"slot":"101","type":"t_address"},{"astId":32158,"contract":"contracts/layer1/devnet/DevnetInbox.sol:DevnetInbox","label":"__gap","offset":0,"slot":"102","type":"t_array(t_uint256)49_storage"},{"astId":25174,"contract":"contracts/layer1/devnet/DevnetInbox.sol:DevnetInbox","label":"__gapFromOldAddressResolver","offset":0,"slot":"151","type":"t_array(t_uint256)50_storage"},{"astId":25177,"contract":"contracts/layer1/devnet/DevnetInbox.sol:DevnetInbox","label":"__reentry","offset":0,"slot":"201","type":"t_uint8"},{"astId":25179,"contract":"contracts/layer1/devnet/DevnetInbox.sol:DevnetInbox","label":"__paused","offset":1,"slot":"201","type":"t_uint8"},{"astId":25183,"contract":"contracts/layer1/devnet/DevnetInbox.sol:DevnetInbox","label":"__gap","offset":0,"slot":"202","type":"t_array(t_uint256)49_storage"},{"astId":6332,"contract":"contracts/layer1/devnet/DevnetInbox.sol:DevnetInbox","label":"_shastaInitializer","offset":0,"slot":"251","type":"t_address"},{"astId":6335,"contract":"contracts/layer1/devnet/DevnetInbox.sol:DevnetInbox","label":"conflictingTransitionDetected","offset":20,"slot":"251","type":"t_bool"},{"astId":6340,"contract":"contracts/layer1/devnet/DevnetInbox.sol:DevnetInbox","label":"_proposalHashes","offset":0,"slot":"252","type":"t_mapping(t_uint256,t_bytes32)"},{"astId":6346,"contract":"contracts/layer1/devnet/DevnetInbox.sol:DevnetInbox","label":"_transitionRecordHashAndDeadline","offset":0,"slot":"253","type":"t_mapping(t_bytes32,t_struct(TransitionRecordHashAndDeadline)6263_storage)"},{"astId":6350,"contract":"contracts/layer1/devnet/DevnetInbox.sol:DevnetInbox","label":"_forcedInclusionStorage","offset":0,"slot":"254","type":"t_struct(Storage)9694_storage"},{"astId":6354,"contract":"contracts/layer1/devnet/DevnetInbox.sol:DevnetInbox","label":"__gap","offset":0,"slot":"256","type":"t_array(t_uint256)37_storage"},{"astId":8545,"contract":"contracts/layer1/devnet/DevnetInbox.sol:DevnetInbox","label":"_reusableTransitionRecords","offset":0,"slot":"293","type":"t_mapping(t_uint256,t_struct(ReusableTransitionRecord)8539_storage)"},{"astId":8549,"contract":"contracts/layer1/devnet/DevnetInbox.sol:DevnetInbox","label":"__gap","offset":0,"slot":"294","type":"t_array(t_uint256)49_storage"},{"astId":9013,"contract":"contracts/layer1/devnet/DevnetInbox.sol:DevnetInbox","label":"__gap","offset":0,"slot":"343","type":"t_array(t_uint256)50_storage"}],"types":{"t_address":{"encoding":"inplace","label":"address","numberOfBytes":"20"},"t_array(t_bytes32)dyn_storage":{"encoding":"dynamic_array","label":"bytes32[]","numberOfBytes":"32","base":"t_bytes32"},"t_array(t_uint256)37_storage":{"encoding":"inplace","label":"uint256[37]","numberOfBytes":"1184","base":"t_uint256"},"t_array(t_uint256)49_storage":{"encoding":"inplace","label":"uint256[49]","numberOfBytes":"1568","base":"t_uint256"},"t_array(t_uint256)50_storage":{"encoding":"inplace","label":"uint256[50]","numberOfBytes":"1600","base":"t_uint256"},"t_bool":{"encoding":"inplace","label":"bool","numberOfBytes":"1"},"t_bytes26":{"encoding":"inplace","label":"bytes26","numberOfBytes":"26"},"t_bytes32":{"encoding":"inplace","label":"bytes32","numberOfBytes":"32"},"t_mapping(t_bytes32,t_struct(TransitionRecordHashAndDeadline)6263_storage)":{"encoding":"mapping","key":"t_bytes32","label":"mapping(bytes32 => struct Inbox.TransitionRecordHashAndDeadline)","numberOfBytes":"32","value":"t_struct(TransitionRecordHashAndDeadline)6263_storage"},"t_mapping(t_uint256,t_bytes32)":{"encoding":"mapping","key":"t_uint256","label":"mapping(uint256 => bytes32)","numberOfBytes":"32","value":"t_bytes32"},"t_mapping(t_uint256,t_struct(ForcedInclusion)5327_storage)":{"encoding":"mapping","key":"t_uint256","label":"mapping(uint256 => struct IForcedInclusionStore.ForcedInclusion)","numberOfBytes":"32","value":"t_struct(ForcedInclusion)5327_storage"},"t_mapping(t_uint256,t_struct(ReusableTransitionRecord)8539_storage)":{"encoding":"mapping","key":"t_uint256","label":"mapping(uint256 => struct InboxOptimized1.ReusableTransitionRecord)","numberOfBytes":"32","value":"t_struct(ReusableTransitionRecord)8539_storage"},"t_struct(BlobSlice)9282_storage":{"encoding":"inplace","label":"struct LibBlobs.BlobSlice","numberOfBytes":"64","members":[{"astId":9275,"contract":"contracts/layer1/devnet/DevnetInbox.sol:DevnetInbox","label":"blobHashes","offset":0,"slot":"0","type":"t_array(t_bytes32)dyn_storage"},{"astId":9278,"contract":"contracts/layer1/devnet/DevnetInbox.sol:DevnetInbox","label":"offset","offset":0,"slot":"1","type":"t_uint24"},{"astId":9281,"contract":"contracts/layer1/devnet/DevnetInbox.sol:DevnetInbox","label":"timestamp","offset":3,"slot":"1","type":"t_uint48"}]},"t_struct(ForcedInclusion)5327_storage":{"encoding":"inplace","label":"struct IForcedInclusionStore.ForcedInclusion","numberOfBytes":"96","members":[{"astId":5322,"contract":"contracts/layer1/devnet/DevnetInbox.sol:DevnetInbox","label":"feeInGwei","offset":0,"slot":"0","type":"t_uint64"},{"astId":5326,"contract":"contracts/layer1/devnet/DevnetInbox.sol:DevnetInbox","label":"blobSlice","offset":0,"slot":"1","type":"t_struct(BlobSlice)9282_storage"}]},"t_struct(ReusableTransitionRecord)8539_storage":{"encoding":"inplace","label":"struct InboxOptimized1.ReusableTransitionRecord","numberOfBytes":"64","members":[{"astId":8533,"contract":"contracts/layer1/devnet/DevnetInbox.sol:DevnetInbox","label":"proposalId","offset":0,"slot":"0","type":"t_uint48"},{"astId":8535,"contract":"contracts/layer1/devnet/DevnetInbox.sol:DevnetInbox","label":"partialParentTransitionHash","offset":6,"slot":"0","type":"t_bytes26"},{"astId":8538,"contract":"contracts/layer1/devnet/DevnetInbox.sol:DevnetInbox","label":"hashAndDeadline","offset":0,"slot":"1","type":"t_struct(TransitionRecordHashAndDeadline)6263_storage"}]},"t_struct(Storage)9694_storage":{"encoding":"inplace","label":"struct LibForcedInclusion.Storage","numberOfBytes":"64","members":[{"astId":9684,"contract":"contracts/layer1/devnet/DevnetInbox.sol:DevnetInbox","label":"queue","offset":0,"slot":"0","type":"t_mapping(t_uint256,t_struct(ForcedInclusion)5327_storage)"},{"astId":9687,"contract":"contracts/layer1/devnet/DevnetInbox.sol:DevnetInbox","label":"head","offset":0,"slot":"1","type":"t_uint48"},{"astId":9690,"contract":"contracts/layer1/devnet/DevnetInbox.sol:DevnetInbox","label":"tail","offset":6,"slot":"1","type":"t_uint48"},{"astId":9693,"contract":"contracts/layer1/devnet/DevnetInbox.sol:DevnetInbox","label":"lastProcessedAt","offset":12,"slot":"1","type":"t_uint48"}]},"t_struct(TransitionRecordHashAndDeadline)6263_storage":{"encoding":"inplace","label":"struct Inbox.TransitionRecordHashAndDeadline","numberOfBytes":"32","members":[{"astId":6260,"contract":"contracts/layer1/devnet/DevnetInbox.sol:DevnetInbox","label":"recordHash","offset":0,"slot":"0","type":"t_bytes26"},{"astId":6262,"contract":"contracts/layer1/devnet/DevnetInbox.sol:DevnetInbox","label":"finalizationDeadline","offset":26,"slot":"0","type":"t_uint48"}]},"t_uint24":{"encoding":"inplace","label":"uint24","numberOfBytes":"3"},"t_uint256":{"encoding":"inplace","label":"uint256","numberOfBytes":"32"},"t_uint48":{"encoding":"inplace","label":"uint48","numberOfBytes":"6"},"t_uint64":{"encoding":"inplace","label":"uint64","numberOfBytes":"8"},"t_uint8":{"encoding":"inplace","label":"uint8","numberOfBytes":"1"}}},"id":38}